{
  "_format": "hh-sol-artifact-1",
  "contractName": "Sample",
  "sourceName": "contracts/Sample.sol",
  "abi": [
    {
      "anonymous": false,
      "inputs": [
        {
          "indexed": false,
          "internalType": "uint8",
          "name": "version",
          "type": "uint8"
        }
      ],
      "name": "Initialized",
      "type": "event"
    },
    {
      "inputs": [],
      "name": "contractOwner",
      "outputs": [
        {
          "internalType": "address",
          "name": "",
          "type": "address"
        }
      ],
      "stateMutability": "view",
      "type": "function"
    },
    {
      "inputs": [],
      "name": "initialize",
      "outputs": [],
      "stateMutability": "nonpayable",
      "type": "function"
    }
  ],
  "bytecode": "0x608060405234801561001057600080fd5b506103a1806100206000396000f3fe608060405234801561001057600080fd5b50600436106100365760003560e01c80638129fc1c1461003b578063ce606ee014610045575b600080fd5b610043610063565b005b61004d6101da565b60405161005a9190610264565b60405180910390f35b60008060019054906101000a900460ff161590508080156100945750600160008054906101000a900460ff1660ff16105b806100c157506100a330610200565b1580156100c05750600160008054906101000a900460ff1660ff16145b5b610100576040517f08c379a00000000000000000000000000000000000000000000000000000000081526004016100f79061029a565b60405180910390fd5b60016000806101000a81548160ff021916908360ff160217905550801561013d576001600060016101000a81548160ff0219169083151502179055505b33600060026101000a81548173ffffffffffffffffffffffffffffffffffffffff021916908373ffffffffffffffffffffffffffffffffffffffff16021790555080156101d75760008060016101000a81548160ff0219169083151502179055507f7f26b83ff96e1f2b6a682f133852f6798a09c465da95921460cefb384740249860016040516101ce919061027f565b60405180910390a15b50565b600060029054906101000a900473ffffffffffffffffffffffffffffffffffffffff1681565b6000808273ffffffffffffffffffffffffffffffffffffffff163b119050919050565b61022c816102cb565b82525050565b61023b8161030a565b82525050565b600061024e602e836102ba565b91506102598261031c565b604082019050919050565b60006020820190506102796000830184610223565b92915050565b60006020820190506102946000830184610232565b92915050565b600060208201905081810360008301526102b381610241565b9050919050565b600082825260208201905092915050565b60006102d6826102dd565b9050919050565b600073ffffffffffffffffffffffffffffffffffffffff82169050919050565b600060ff82169050919050565b6000610315826102fd565b9050919050565b7f496e697469616c697a61626c653a20636f6e747261637420697320616c72656160008201527f647920696e697469616c697a656400000000000000000000000000000000000060208201525056fea26469706673582212203db5cb4b98130900a1d9cc3e35dcdafe3cc0bf9d7656e963573477b7359cb8b964736f6c63430008040033",
  "linkReferences": {},
  "deployedLinkReferences": {}
}